:02013F00C100FD
:04011B007F147E00CF
:10011F00E4FDFCC3ED9FEC9E5015E4FBFA0BBB0016
:0F012F00010AEB647B4A70F50DBD00010C80E402
:01013E00229E
:1000EC009000007F0A7E0012011F30B10930B0066B
:1000FC0030B20320B30A200009D2007E007F012217
:0E010C00C200A3E5826432458370D8E4FEFF92
:01011A0022C2
:10008F0020B11512011B30B1FDE4F5A01200ECEF09
:10009F004E700563A0FF80F420B01512011B30B025
:1000AF00FD75A0551200ECEF4E700563A0FF80F4B4
:1000BF0020B21512011B30B2FD75A0F01200ECEF4B
:1000CF004E700563A0FF80F420B3B512011B30B34F
:0D00DF00FD75A0FF1200ECEF4E60F980A34C
:03000000020003F8
:0C000300787FE4F6D8FD75812002004AE9
:10000F0002008FE493A3F8E493A34003F68001F278
:10001F0008DFF48029E493A3F85407240CC8C333F2
:10002F00C4540F4420C8834004F456800146F6DFC1
:10003F00E4800B010204081020408090013FE47E11
:10004F00019360BCA3FF543F30E509541FFEE493B6
:10005F00A360010ECF54C025E060A840B8E493A37D
:10006F00FAE493A3F8E493A3C8C582C8CAC583CAA8
:10007F00F0A3C8C582C8CAC583CADFE9DEE780BE60
:0101410000BD
:00000001FF
