:02010900C10033
:1000E900E4FDFCC3ED9FEC9E5015E4FBFA0BBB004D
:0F00F900010AEB647B4A70F50DBD00010C80E439
:0101080022D4
:1000C5009000007F0A7E001200E920B10820000799
:1000D500D2007F0122C200A3E5826432458370E32A
:0300E500E4FEFF37
:0100E80022F5
:10008F00E4F508F50920B1FD1200C5EF4E60F60545
:10009F0009E5097002050830E0EB75A0551200C59F
:1000AF00EF4E600D0509E5097002050875A0FF8088
:0600BF00D463A0FF80E7FE
:03000000020003F8
:0C000300787FE4F6D8FD75812002004AE9
:10000F0002008FE493A3F8E493A34003F68001F278
:10001F0008DFF48029E493A3F85407240CC8C333F2
:10002F00C4540F4420C8834004F456800146F6DFC1
:10003F00E4800B0102040810204080900109E47E47
:10004F00019360BCA3FF543F30E509541FFEE493B6
:10005F00A360010ECF54C025E060A840B8E493A37D
:10006F00FAE493A3F8E493A3C8C582C8CAC583CAA8
:10007F00F0A3C8C582C8CAC583CADFE9DEE780BE60
:01010B0000F3
:00000001FF
