:1001AE003F065B4F666D7D077F6F777C395E797199
:1001BE00BF86DBCFE6EDFD87FFEFF7FCB9DEF9F189
:1000AD00E4F514E514B40800504D9000BEF828286E
:1000BD00730200D60200DA0200E20200E60200EE50
:1000CD000200F20200FA0200FEC2A28002D2A2C217
:1000DD00A3C2A48022C2A28002D2A2D2A3C2A480B3
:1000ED0016C2A28002D2A2C2A3D2A4800AC2A2804A
:1000FD0002D2A2D2A3D2A474082514F8E6F5807F0B
:10010D00017E001201CEE4F5800514E514C39408B8
:02011D0040910F
:01011F0022BD
:100003007510137511885389F04389010511E511A2
:1000130070020510D394E8E510940350030200A77F
:1000230012016AEF70FA7FCC1201207F4412012083
:100033007F207E031201CE12016AEF70FA7FCC1289
:1000430001207FBE1201201201467512008F131288
:100053000146EFFEEE4212E512C4F854F0C8E51370
:10006300C4540F48FDE513540F75F00AA4FFE5F0DF
:10007300C4F854F0C8EFC4540F48FF750A39750B20
:10008300639001AE93F50CED75F00A84E5F09001F1
:10009300BE93F50DED75F00A849001AE93F50EE471
:0A00A300F510F5111200AD02000F78
:1001CE00E4FDFCC3ED9FEC9E5015E4FBFA0BBB0067
:0F01DE00010AEB647B4A70F50DBD00010C80E453
:0101ED0022EF
:1001EE00C3E49FFFE49EF58CEFF58AD28C308DFD33
:0401FE00C28CC28D60
:0102020022D9
:10016A00C2B77FE07E011201EED2B77F467E00124F
:10017A0001EEA2B7E433F5147F9A7E011201EEAFC5
:01018A001460
:01018B002251
:10020300C2B77F067E001201EED2B77F407E0002A6
:0202130001EEFA
:10021500C2B77F3C7E001201EED2B77F0A7E000294
:0202250001EEE8
:0A023300BF010302020312021522AC
:020120008F143A
:10012200751500751608E5161516AE15700215152B
:100132004E6010E5145401FF120233E514C313F5A7
:030142001480E343
:010145002297
:10018C00C2B77F067E001201EED2B77F097E001245
:10019C0001EEA2B7E433F5167F377E001201EEAF05
:0101AC00163C
:0101AD00222F
:10014600751408E4F515AF141514EF6014E515C31E
:1001560013F51512018CEFC43333335480421580E6
:03016600E5AF15ED
:010169002273
:03000000020227D2
:0C022700787FE4F6D8FD75811602000314
:00000001FF
