:0C01C40048454C4C4F00574F524C440033
:10005F00C2A51200037B417D027F0112018B7F42FB
:10006F001201B47F887E131200F47F011201147FF6
:10007F00D07E071200F47BFF7A0179C41201347B22
:0E008F00FF7A0179CA7D017F0212015480FEC2
:1000F400E4FDFCC3ED9FEC9E5015E4FBFA0BBB0042
:0F010400010AEB647B4A70F50DBD00010C80E42D
:0101130022C9
:1001A200EF339287EFA2E69286A2E59285A2E492CD
:0201B2008422A5
:070173001201A2D2A7C2A7EE
:10017A00EFA2E39287A2E29286A2E1928513928489
:01018A002252
:0701DC00AE071FEE70FA22CE
:10000300C2A6C2A77F147E001200F47F0312017AF6
:10001300D2A7C2A77F057E001200F47F0312017AE4
:10002300D2A7C2A77F641201DC7F0312017AD2A791
:10003300C2A77F017E001200F47F0212017AD2A7C9
:10004300C2A71F7E001200F47F281201147F0C1236
:0C00530001147F011201147F0602011449
:10011400AE07C2A6120173D2A7C2A7EF24FE6003E2
:100124000470077F027E000200F47F251201DC22A6
:1001B400AE07D2A6120173D2A7C2A77F290201DC1F
:02018B008B08DF
:10018D00BF01047F8080027FC0ED142FFF12011488
:05019D00AF080201B4EF
:060134008B0B8A0C890D03
:10013A00E4FDAB0BAA0CA90D8D8275830012009DFC
:09014A00FF60061201B40D80E90A
:010153002289
:060154008B088A09890AEC
:10015A00BF01047F8080027FC0ED142FFF120114BB
:09016A00AB08AA09A90A0201343C
:0600CA008B0E8A0F891065
:1000D000EF75F008A42440FF120114E4FDAB0EAA52
:1000E0000FA9108D8275830012009DFF1201B40DBF
:0300F000BD08EA5E
:0100F30022EA
:030000000201D02A
:0C01D000787FE4F6D8FD75811002005F16
:10009D00BB010CE58229F582E5833AF583E0225018
:1000AD0006E92582F8E622BBFE06E92582F8E22262
:0D00BD00E58229F582E5833AF583E493227C
:00000001FF
