:1001AD00D2A05389F0438901D2AFD2A98E108F11FD
:0101BD00221F
:10011D00EF7005C2A0C2A922BF6405D2A0C2A92258
:10012D007E00AC10AD111200F0E47B64FAF9F81208
:10013D00004A8E0C8F0DC3E511950DF509E510954F
:10014D000CF508AB07AA06E4C39BFFE49AFE740105
:10015D009400FDE49400FC78081200DC8F0EE4C3DB
:10016D009BFFE48F0FAE08AF09AB07AA06C39BFF39
:10017D00E49AFE74019400FDE49400FC78081200EA
:0A018D00DC8F0AE4C39BFF8F0B22F6
:1001BE007FE87E031201AD7F4612011DD28C80FEB8
:03000B0002019758
:10019700B2A020A007850A8C850B8A3230A006857D
:0601A7000E8C850F8A3268
:030000000201CE2C
:0C01CE00787FE4F6D8FD7581110201BEB7
:10000E0075F008758200EF2FFFEE33FECD33CDCCA9
:10001E0033CCC58233C5829BED9AEC99E58298402C
:10002E000CF582EE9BFEED9AFDEC99FC0FD5F0D609
:10003E00E4CEFBE4CDFAE4CCF9A88222B800C1B933
:10004E000059BA002DEC8BF084CFCECDFCE5F0CB71
:10005E00F97818EF2FFFEE33FEED33FDEC33FCEBAA
:10006E0033FB10D703994004EB99FB0FD8E5E4F965
:10007E00FA227818EF2FFFEE33FEED33FDEC33FC52
:10008E00C933C910D7059BE99A4007EC9BFCE99A46
:10009E00F90FD8E0E4C9FAE4CCFB2275F010EF2F8B
:1000AE00FFEE33FEED33FDCC33CCC833C810D7078B
:1000BE009BEC9AE899400AED9BFDEC9AFCE899F8C6
:0E00CE000FD5F0DAE4CDFBE4CCFAE4C8F92259
:1000DC00E86010ECA2E713FCED13FDEE13FEEF133A
:0400EC00FFD8F02227
:1000F000EC8EF0A4CCC5F0CCCDF8EFA4CEC5F02D9D
:10010000FDE43CFCE8A42EC8C5F03DFDE43CFCEF5A
:0D011000A4FFE5F028FEE43DFDE43CFC22E8
:00000001FF
