:1000FD0000007CA2928A7C0000000002FE420000FB
:10010D0000006292928A460000006C929292440026
:10011D00000008FE4828180000008C929292F4000E
:10012D0000000C9292523C000000C0A0908E800006
:10013D0000006C9292926C00000078949292600094
:080085008B0E8A0F89108D110A
:10008D00E4F512F513AF117E00C3E5139FE5129E43
:10009D005059AB0EE5102FF9EE350FFAC3E9951354
:1000AD00F9EA9512FA90FFFF12014D8E14F515E441
:1000BD00FBFAAF037E007480A807088006CEA2E786
:1000CD0013CE13D8F8FFE5145EFEE5155F4E24FF41
:1000DD0092B4C2B6D2B60BBB00010AEB64084A70EB
:0F00ED00D10513E513709E0512809AC2B5D2B5E6
:0100FC0022E1
:10000300E4F508F509E4F50CF50DE4F50AF50BAE96
:1000130008E5097803C333CE33CED8F924FDF97448
:10002300003EFA7BFFE9250BF9EA350AFA7D011256
:100033000085AF0BA8077401088002C333D8FCF412
:10004300F5807F017E0012017A7580FF050BE50BB9
:100053007002050AC39408E50A940040B2050DE551
:100063000D7002050CC3947DE50C9400409C0509BA
:10007300E50970020508C3940AE508940040860266
:02008300000378
:10017A00E4FDFCC3ED9FEC9E5015E4FBFA0BBB00BB
:0F018A00010AEB64714A70F50DBD00010C80E4B1
:010199002243
:0300000002019A60
:0C019A00787FE4F6D8FD758115020003A3
:10014D00BB010CE58229F582E5833AF583E0225067
:10015D0006E92582F8E622BBFE06E92582F8E222B1
:0D016D00E58229F582E5833AF583E49322CB
:00000001FF
