:08010C00007C8A92A27C000035
:080003008B098A0A890B8D0CA0
:10000B00E4F50DF50EAF0C7E00C3E50E9FE50D9EDE
:10001B005059AB09E50B2FF9EE350AFAC3E9950EEA
:10002B00F9EA950DFA90FFFF1200B38E0FF510E46D
:10003B00FBFAAF037E007480A807088006CEA2E708
:10004B0013CE13D8F8FFE50F5EFEE5105F4E24FFCD
:10005B0092B4C2B6D2B60BBB00010AEB64084A706D
:0F006B00D1050EE50E709E050D809AC2B5D2B577
:01007A002263
:10007B00E4F508740C2508F9E43401FA7BFF7D01E3
:10008B00120003AF08A8077401088002C333D8FC21
:10009B00F4F5807F027E001200E07580FF0508E515
:0800AB0008C3940840CD80C891
:1000E000E4FDFCC3ED9FEC9E5015E4FBFA0BBB0056
:0F00F000010AEB64714A70F50DBD00010C80E44C
:0100FF0022DE
:03000000020100FA
:0C010000787FE4F6D8FD75811002007BCA
:1000B300BB010CE58229F582E5833AF583E0225002
:1000C30006E92582F8E622BBFE06E92582F8E2224C
:0D00D300E58229F582E5833AF583E4932266
:00000001FF
