:0A0383004E6869657420646F3A004B
:10000300C2A512015A5389F043890112022AEF70E3
:10001300FA7FCC1201E07F441201E07F207E0312BD
:10002300026E12022AEF70FA7FCC1201E07FBE1239
:1000330001E01202067508008F09120206EFFEEEB8
:100043004208E508C4F854F0C868F50AE509C45441
:100053000F48F50B750C00E509540FF50DAE0CFFB9
:100063007C007D0A1200F3EEC4F854F0C868F50C66
:10007300EFC4540F48F50D7BFF7A0379837D017F2D
:10008300011202CEAE0AAF0B7C007D0A120105EF0E
:100093002430FB7D0B7F01120305AE0AAF0B7C00FE
:1000A3007D0A120105ED2430FF1203677F2E120330
:1000B30067E50D2430FF1203677FF47E0112026EA1
:0300C30002000E2A
:10026E00E4FDFCC3ED9FEC9E5015E4FBFA0BBB00C6
:0F027E00010AEB647B4A70F50DBD00010C80E4B2
:01028D00224E
:10022A00C2B77FE07E0112031CD2B77F467E00125E
:10023A00031CA2B7E433F50E7F9A7E0112031CAFAA
:01024A000EA5
:01024B002290
:10033100C2B77F067E0012031CD2B77F407E000247
:02034100031C9B
:10034300C2B77F3C7E0012031CD2B77F0A7E000235
:02035300031C89
:0A038D00BF010302033112034322F3
:0201E0008F0E80
:1001E200750F00751008E5101510AE0F7002150F8F
:1001F2004E6010E50E5401FF12038DE50EC313F598
:030202000E80E388
:0102050022D6
:10024C00C2B77F067E0012031CD2B77F097E001254
:10025C00031CA2B7E433F5107F377E0012031CAFEA
:01026C001081
:01026D00226E
:10020600750E08E4F50FAF0E150EEF6014E50FC37B
:1002160013F50F12024CEFC43333335480420F8070
:03022600E5AF0F32
:0102290022B2
:10031C00C3E49FFFE49EF58CEFF58AD28C308DFD03
:04032C00C28CC28D30
:0103300022AA
:10035500EF339287EFA2E69286A2E59285A2E49218
:020365008422F0
:0702ED00120355D2A7C2A7BE
:1002F400EFA2E39287A2E29286A2E192851392840E
:0103040022D6
:07039700AE071FEE70FA2211
:10015A00C2A6C2A77F147E0012026E7F031202F4A7
:10016A00D2A7C2A77F057E0012026E7F031202F495
:10017A00D2A7C2A77F641203977F031202F4D2A701
:10018A00C2A77F017E0012026E7F021202F4D2A77A
:10019A00C2A71F7E0012026E7F2812028E7F0C12E7
:0C01AA00028E7F0112028E7F0602028E80
:10028E00AE07C2A61202EDD2A7C2A7EF24FE6003EC
:10029E000470077F027E0002026E7F2512039722F2
:10036700AE07D2A61202EDD2A7C2A77F2902039732
:020305008B0E5D
:10030700BF01047F8080027FC0ED142FFF12028E91
:05031700AF0E020367B8
:0602AE008B118A12891376
:1002B400E4FDAB11AA12A9138D827583001200C646
:0902C400FF60061203670D80E9DA
:0102CD00220E
:0602CE008B0E8A0F89105F
:1002D400BF01047F8080027FC0ED142FFF12028EC5
:0902E400AB0EAA0FA9100202AE34
:0601B6008B148A15891666
:1001BC00EF75F008A42440FF12028EE4FDAB14AAE4
:1001CC0015A9168D827583001200C6FF1203670DE8
:0301DC00BD08EA71
:0101DF0022FD
:0300000002037781
:0C037700787FE4F6D8FD758116020003C3
:1000C600BB010CE58229F582E5833AF583E02250EF
:1000D60006E92582F8E622BBFE06E92582F8E22239
:0D00E600E58229F582E5833AF583E4932253
:1000F300EF8DF0A4A8F0CF8CF0A428CE8DF0A42E21
:02010300FE22DA
:10010500BC000BBE0029EF8DF084FFADF022E4CCDE
:10011500F875F008EF2FFFEE33FEEC33FCEE9DECA7
:10012500984005FCEE9DFE0FD5F0E9E4CEFD22EDED
:10013500F8F5F0EE8420D21CFEADF075F008EF2F37
:10014500FFED33FD4007985006D5F0F222C398FD28
:050155000FD5F0EA22C5
:00000001FF
