:02017300C100C9
:04012B007F147E00BF
:10012F00E4FDFCC3ED9FEC9E5015E4FBFA0BBB0006
:0F013F00010AEB647B4A70F50DBD00010C80E4F2
:01014E00228E
:10014F009000007F0A7E0012012F20B108200007C7
:10015F00D2007F0122C200A3E5826432458370E39F
:03016F00E4FEFFAC
:01017200226A
:1000030030B10302009912012B30B1FD75A0FFE45A
:10001300F508F50920B00512012B801B12014FEFE3
:100023004E701463A0FF0509E50970020508C39427
:100033000AE508940040DD75A055E4F508F50920AC
:10004300B00512012B801B12014FEF4E701463A0F9
:10005300FF0509E50970020508C3940AE508940041
:1000630040DD75A0F0E4F508F50920B00512012B79
:10007300801B12014FEF4E701463A0FF0509E509C1
:1000830070020508C3940AE508940040DD30B0030C
:0C00930002000F12012B75A0FF020003F9
:0300000002009F5C
:0C009F00787FE4F6D8FD7581200200E6B1
:1000AB00020003E493A3F8E493A34003F68001F268
:1000BB0008DFF48029E493A3F85407240CC8C33356
:1000CB00C4540F4420C8834004F456800146F6DF25
:1000DB00E4800B0102040810204080900173E47E41
:1000EB00019360BCA3FF543F30E509541FFEE4931A
:1000FB00A360010ECF54C025E060A840B8E493A3E1
:10010B00FAE493A3F8E493A3C8C582C8CAC583CA0B
:10011B00F0A3C8C582C8CAC583CADFE9DEE780BEC3
:010175000089
:00000001FF
