:1004FA004144432076616C75653A2000766F6C74CE
:06050A006167653A200064
:10025800C2A512036D7F941204B28E088F097BFF2A
:100268007A0479FA7D017F01120477AE08AF097C20
:10027800037DE81201F5EF2430FF120522AE08AF26
:10028800097C037DE81201F57E007F64CFCDCFCED7
:10029800CCCE1201F5EF2430FF120522AE08AF09CB
:1002A8007C007D641201F57E007F0ACFCDCFCECCD5
:1002B800CE1201F5EF2430FF120522AE08AF097CFB
:1002C800007D0A1201F5ED2430FF120522AC08ADBD
:1002D80009E412010E7BC57A49799C783F12000324
:1002E8001201478E0A8F0B7BFF7A0579067D017F05
:1002F80002120477AE0AAF0B7C037DE81201F5EF1A
:100308002430FF1205227F2E120522AE0AAF0B7C85
:10031800037DE81201F57E007F64CFCDCFCECCCE31
:100328001201F5EF2430FF120522AE0AAF0B7C0054
:100338007D641201F57E007F0ACFCDCFCECCCE12E0
:1003480001F5EF2430FF120522AE0AAF0B7C007DC9
:100358000A1201F5ED2430FF1205227FF47E011206
:05036800041702025D14
:10041700E4FDFCC3ED9FEC9E5015E4FBFA0BBB001B
:0F042700010AEB647B4A70F50DBD00010C80E407
:0104360022A3
:10051000EF339287EFA2E69286A2E59285A2E4925B
:02052000842233
:0704CB00120510D2A7C2A721
:1004D200EFA2E39287A2E29286A2E192851392842E
:0104E20022F7
:07054900AE071FEE70FA225D
:10036D00C2A6C2A77F147E001204177F031204D207
:10037D00D2A7C2A77F057E001204177F031204D2F5
:10038D00D2A7C2A77F641205497F031204D2D2A758
:10039D00C2A77F017E001204177F021204D2D2A7DA
:1003AD00C2A71F7E001204177F281204377F0C127C
:0C03BD0004377F011204377F060204376A
:10043700AE07C2A61204CBD2A7C2A7EF24FE600361
:100447000470077F027E000204177F2512054922E8
:10052200AE07D2A61204CBD2A7C2A77F29020549E1
:0204E3008B1577
:1004E500BF01047F8080027FC0ED142FFF12043707
:0504F500AF1502052215
:060457008B0F8A108911D1
:10045D00E4FDAB0FAA10A9118D827583001201C89E
:09046D00FF60061205220D80E972
:010476002263
:060477008B0C8A0D890EBA
:10047D00BF01047F8080027FC0ED142FFF1204376F
:09048D00AB0CAA0DA90E020457E4
:0603C9008B128A13891457
:1003CF00EF75F008A42440FF120437E4FDAB12AA26
:1003DF0013A9148D827583001201C8FF1205220D17
:0303EF00BD08EA5C
:0103F20022E8
:0B053E00C2B6D2B5D2B4D2B6C2B5220C
:10049600C2B6E4FEEFC4131313540124FF92B4EF63
:0B04A60025E0FFC2B6D2B60EBE08E98A
:0104B1002228
:1003F300E4FFFEC2B6FDFCEF25E0FFEE33FED2B60E
:10040300C2B6A2B7E43342070DBD00010CED640C84
:030413004C70E446
:0104160022C3
:1004B200C2B6C2B51204967F06DFFED2B60000C2F3
:0804C200B600001203F3D2B5ED
:0104CA00220F
:10000300EC4D6011E8497017ED33EC3304600DE4F7
:10001300FCFFFEFD22E933E8330470F80201B3125A
:10002300017E58046009E4CC24815006285009025B
:1000330001BD2840030201BAC0E0EB4A7044B98015
:1000430006D0E0FB0201A9EF4E701CBD8008EBFF58
:10005300EAFEE9FD80EBE98DF0A4FEE5F00200EC99
:10006300E9CDF9EAFEEBFFEF89F0A4FCE5F0CE89D8
:10007300F0A42EFFE435F0CD89F0A42DFEE435F095
:100083008067EF4E7005BD80D780C3EF8BF0A4ACC3
:10009300F0EE8BF0A42CFCE435F0F8EF8AF0A42CFE
:1000A300E5F038FCE433CB8DF0A42CFCE5F03BF811
:1000B300EE8AF0A42CFCE5F038F8E433CF89F0A401
:1000C3002CFCE5F038CF3400CE89F0A42FFFE5F007
:1000D3003EFEE433C98DF0A42EFEE5F039CD8AF05F
:1000E300A42FFFE5F03EFEE43DFD33D0E0FB5007D7
:1000F3000BBB000F0201BDEC2CFCEF33FFEE33FE14
:06010300ED33FD02019541
:1001090075F020800E75F010800575F0087D007E71
:10011900007F003392D530D50312024AEC334010E8
:10012900EF33FFEE33FEED33FDEC33FCD5F0ED227A
:0E013900E5F0247EA2D513CC92E7CDCEFF22B6
:10014700EDD2E7CD33EC3392D524814006E4FFFEB0
:10015700FDFC22FCE4CFCECDCC24E0501174FF800F
:10016700EDC3CC13CCCD13CDCE13CECF13CF0470AC
:07017700F030D5DE02024A60
:10017E00E9D2E7C933E833F892D5EDD2E7CD33ECC7
:07018E0033FC5002B2D52240
:10019500EC30E7100FBF000C0EBE00080DBD0004CB
:1001A5000BEB6014A2D5EB13FCED92E7FD2274FF77
:1001B500FCFDFEFF22E480F8A2D574FF13FC7D80D0
:0301C500E480EFE4
:03000000020532C4
:0C053200787FE4F6D8FD758115020258B0
:1001C800BB010CE58229F582E5833AF583E02250EC
:1001D80006E92582F8E622BBFE06E92582F8E22236
:0D01E800E58229F582E5833AF583E4932250
:1001F500BC000BBE0029EF8DF084FFADF022E4CCEE
:10020500F875F008EF2FFFEE33FEEC33FCEE9DECB6
:10021500984005FCEE9DFE0FD5F0E9E4CEFD22EDFC
:10022500F8F5F0EE8420D21CFEADF075F008EF2F46
:10023500FFED33FD4007985006D5F0F222C398FD37
:050245000FD5F0EA22D4
:0E024A00C3E49FFFE49EFEE49DFDE49CFC22C5
:00000001FF
